{
  "address": "0xe7f1725E7734CE288F8367e1Bb143E90bb3F0512",
  "abi": [
    {
      "inputs": [
        {
          "internalType": "address",
          "name": "s_priceFeedAddress",
          "type": "address"
        }
      ],
      "stateMutability": "nonpayable",
      "type": "constructor"
    },
    {
      "inputs": [],
      "name": "FundMe_notOwner",
      "type": "error"
    },
    {
      "stateMutability": "payable",
      "type": "fallback"
    },
    {
      "inputs": [],
      "name": "MINIMUM_USD",
      "outputs": [
        {
          "internalType": "uint256",
          "name": "",
          "type": "uint256"
        }
      ],
      "stateMutability": "view",
      "type": "function"
    },
    {
      "inputs": [],
      "name": "Withdraw",
      "outputs": [],
      "stateMutability": "nonpayable",
      "type": "function"
    },
    {
      "inputs": [],
      "name": "cheaperWithdraw",
      "outputs": [],
      "stateMutability": "nonpayable",
      "type": "function"
    },
    {
      "inputs": [],
      "name": "fund",
      "outputs": [],
      "stateMutability": "payable",
      "type": "function"
    },
    {
      "inputs": [
        {
          "internalType": "address",
          "name": "_funder",
          "type": "address"
        }
      ],
      "name": "getAddressToAmountFunded",
      "outputs": [
        {
          "internalType": "uint256",
          "name": "",
          "type": "uint256"
        }
      ],
      "stateMutability": "view",
      "type": "function"
    },
    {
      "inputs": [
        {
          "internalType": "uint256",
          "name": "_index",
          "type": "uint256"
        }
      ],
      "name": "getFunders",
      "outputs": [
        {
          "internalType": "address",
          "name": "",
          "type": "address"
        }
      ],
      "stateMutability": "view",
      "type": "function"
    },
    {
      "inputs": [],
      "name": "getOwner",
      "outputs": [
        {
          "internalType": "address",
          "name": "",
          "type": "address"
        }
      ],
      "stateMutability": "view",
      "type": "function"
    },
    {
      "inputs": [],
      "name": "getPriceFeed",
      "outputs": [
        {
          "internalType": "contract AggregatorV3Interface",
          "name": "",
          "type": "address"
        }
      ],
      "stateMutability": "view",
      "type": "function"
    },
    {
      "stateMutability": "payable",
      "type": "receive"
    }
  ],
  "transactionHash": "0xf79a40a6266e7ae55e0cadada1760da9a751dc586908a3d38404c7dfce20f4b4",
  "args": [
    "0x5FbDB2315678afecb367f032d93F642f64180aa3"
  ],
  "numDeployments": 1,
  "solcInputHash": "1faee59eb409c98b64b61d94acf4a03e",
  "bytecode": "0x60a06040523480156200001157600080fd5b50604051620012eb380380620012eb8339818101604052810190620000379190620000cc565b3373ffffffffffffffffffffffffffffffffffffffff1660808173ffffffffffffffffffffffffffffffffffffffff1660601b81525050806000806101000a81548173ffffffffffffffffffffffffffffffffffffffff021916908373ffffffffffffffffffffffffffffffffffffffff1602179055505062000151565b600081519050620000c68162000137565b92915050565b600060208284031215620000e557620000e462000132565b5b6000620000f584828501620000b5565b91505092915050565b60006200010b8262000112565b9050919050565b600073ffffffffffffffffffffffffffffffffffffffff82169050919050565b600080fd5b6200014281620000fe565b81146200014e57600080fd5b50565b60805160601c61116d6200017e60003960008181610397015281816105e70152610636015261116d6000f3fe60806040526004361061007f5760003560e01c8063893d20e81161004e578063893d20e8146101545780639e87a5cd1461017f578063b60d4288146101aa578063be2693f0146101b45761008e565b80630343fb25146100985780633a7b6c74146100d557806357ea89b6146101125780636b69a592146101295761008e565b3661008e5761008c6101cb565b005b6100966101cb565b005b3480156100a457600080fd5b506100bf60048036038101906100ba9190610ac5565b610304565b6040516100cc9190610cbb565b60405180910390f35b3480156100e157600080fd5b506100fc60048036038101906100f79190610af2565b61034d565b6040516101099190610c45565b60405180910390f35b34801561011e57600080fd5b50610127610395565b005b34801561013557600080fd5b5061013e6105d6565b60405161014b9190610cbb565b60405180910390f35b34801561016057600080fd5b506101696105e3565b6040516101769190610c45565b60405180910390f35b34801561018b57600080fd5b5061019461060b565b6040516101a19190610c60565b60405180910390f35b6101b26101cb565b005b3480156101c057600080fd5b506101c9610634565b005b6802b5e3af16b188000061020860008054906101000a900473ffffffffffffffffffffffffffffffffffffffff16346108d990919063ffffffff16565b1015610249576040517f08c379a000000000000000000000000000000000000000000000000000000000815260040161024090610c7b565b60405180910390fd5b34600260003373ffffffffffffffffffffffffffffffffffffffff1673ffffffffffffffffffffffffffffffffffffffff16815260200190815260200160002060008282546102989190610cf2565b925050819055506001339080600181540180825580915050600190039060005260206000200160009091909190916101000a81548173ffffffffffffffffffffffffffffffffffffffff021916908373ffffffffffffffffffffffffffffffffffffffff160217905550565b6000600260008373ffffffffffffffffffffffffffffffffffffffff1673ffffffffffffffffffffffffffffffffffffffff168152602001908152602001600020549050919050565b60006001828154811061036357610362611023565b5b9060005260206000200160009054906101000a900473ffffffffffffffffffffffffffffffffffffffff169050919050565b7f000000000000000000000000000000000000000000000000000000000000000073ffffffffffffffffffffffffffffffffffffffff163373ffffffffffffffffffffffffffffffffffffffff161461041a576040517fd72551ca00000000000000000000000000000000000000000000000000000000815260040160405180910390fd5b60005b6001805490508110156104c6576000600182815481106104405761043f611023565b5b9060005260206000200160009054906101000a900473ffffffffffffffffffffffffffffffffffffffff1690506000600260008373ffffffffffffffffffffffffffffffffffffffff1673ffffffffffffffffffffffffffffffffffffffff168152602001908152602001600020819055505080806104be90610f7c565b91505061041d565b50600067ffffffffffffffff8111156104e2576104e1611052565b5b6040519080825280602002602001820160405280156105105781602001602082028036833780820191505090505b50600190805190602001906105269291906109b5565b5060003373ffffffffffffffffffffffffffffffffffffffff164760405161054d90610c30565b60006040518083038185875af1925050503d806000811461058a576040519150601f19603f3d011682016040523d82523d6000602084013e61058f565b606091505b50509050806105d3576040517f08c379a00000000000000000000000000000000000000000000000000000000081526004016105ca90610c9b565b60405180910390fd5b50565b6802b5e3af16b188000081565b60007f0000000000000000000000000000000000000000000000000000000000000000905090565b60008060009054906101000a900473ffffffffffffffffffffffffffffffffffffffff16905090565b7f000000000000000000000000000000000000000000000000000000000000000073ffffffffffffffffffffffffffffffffffffffff163373ffffffffffffffffffffffffffffffffffffffff16146106b9576040517fd72551ca00000000000000000000000000000000000000000000000000000000815260040160405180910390fd5b6000600180548060200260200160405190810160405280929190818152602001828054801561073d57602002820191906000526020600020905b8160009054906101000a900473ffffffffffffffffffffffffffffffffffffffff1673ffffffffffffffffffffffffffffffffffffffff16815260200190600101908083116106f3575b5050505050905060005b81518110156107c857600082828151811061076557610764611023565b5b602002602001015190506000600260008373ffffffffffffffffffffffffffffffffffffffff1673ffffffffffffffffffffffffffffffffffffffff168152602001908152602001600020819055505080806107c090610f7c565b915050610747565b50600067ffffffffffffffff8111156107e4576107e3611052565b5b6040519080825280602002602001820160405280156108125781602001602082028036833780820191505090505b50600190805190602001906108289291906109b5565b5060003373ffffffffffffffffffffffffffffffffffffffff164760405161084f90610c30565b60006040518083038185875af1925050503d806000811461088c576040519150601f19603f3d011682016040523d82523d6000602084013e610891565b606091505b50509050806108d5576040517f08c379a00000000000000000000000000000000000000000000000000000000081526004016108cc90610c9b565b60405180910390fd5b5050565b6000806108e583610915565b90506000670de0b6b3a764000085836108fe9190610e90565b6109089190610d48565b9050809250505092915050565b6000808273ffffffffffffffffffffffffffffffffffffffff1663feaf968c6040518163ffffffff1660e01b815260040160a06040518083038186803b15801561095e57600080fd5b505afa158015610972573d6000803e3d6000fd5b505050506040513d601f19601f820116820180604052508101906109969190610b1f565b5050509150506402540be400816109ad9190610d79565b915050919050565b828054828255906000526020600020908101928215610a2e579160200282015b82811115610a2d5782518260006101000a81548173ffffffffffffffffffffffffffffffffffffffff021916908373ffffffffffffffffffffffffffffffffffffffff160217905550916020019190600101906109d5565b5b509050610a3b9190610a3f565b5090565b5b80821115610a58576000816000905550600101610a40565b5090565b600081359050610a6b816110db565b92915050565b600081519050610a80816110f2565b92915050565b600081359050610a9581611109565b92915050565b600081519050610aaa81611109565b92915050565b600081519050610abf81611120565b92915050565b600060208284031215610adb57610ada611081565b5b6000610ae984828501610a5c565b91505092915050565b600060208284031215610b0857610b07611081565b5b6000610b1684828501610a86565b91505092915050565b600080600080600060a08688031215610b3b57610b3a611081565b5b6000610b4988828901610ab0565b9550506020610b5a88828901610a71565b9450506040610b6b88828901610a9b565b9350506060610b7c88828901610a9b565b9250506080610b8d88828901610ab0565b9150509295509295909350565b610ba381610eea565b82525050565b610bb281610f46565b82525050565b6000610bc5601283610ce1565b9150610bd082611086565b602082019050919050565b6000610be8600b83610ce1565b9150610bf3826110af565b602082019050919050565b6000610c0b600083610cd6565b9150610c16826110d8565b600082019050919050565b610c2a81610f26565b82525050565b6000610c3b82610bfe565b9150819050919050565b6000602082019050610c5a6000830184610b9a565b92915050565b6000602082019050610c756000830184610ba9565b92915050565b60006020820190508181036000830152610c9481610bb8565b9050919050565b60006020820190508181036000830152610cb481610bdb565b9050919050565b6000602082019050610cd06000830184610c21565b92915050565b600081905092915050565b600082825260208201905092915050565b6000610cfd82610f26565b9150610d0883610f26565b9250827fffffffffffffffffffffffffffffffffffffffffffffffffffffffffffffffff03821115610d3d57610d3c610fc5565b5b828201905092915050565b6000610d5382610f26565b9150610d5e83610f26565b925082610d6e57610d6d610ff4565b5b828204905092915050565b6000610d8482610efc565b9150610d8f83610efc565b9250827f7fffffffffffffffffffffffffffffffffffffffffffffffffffffffffffffff0482116000841360008413161615610dce57610dcd610fc5565b5b817f80000000000000000000000000000000000000000000000000000000000000000583126000841260008413161615610e0b57610e0a610fc5565b5b827f80000000000000000000000000000000000000000000000000000000000000000582126000841360008412161615610e4857610e47610fc5565b5b827f7fffffffffffffffffffffffffffffffffffffffffffffffffffffffffffffff0582126000841260008412161615610e8557610e84610fc5565b5b828202905092915050565b6000610e9b82610f26565b9150610ea683610f26565b9250817fffffffffffffffffffffffffffffffffffffffffffffffffffffffffffffffff0483118215151615610edf57610ede610fc5565b5b828202905092915050565b6000610ef582610f06565b9050919050565b6000819050919050565b600073ffffffffffffffffffffffffffffffffffffffff82169050919050565b6000819050919050565b600069ffffffffffffffffffff82169050919050565b6000610f5182610f58565b9050919050565b6000610f6382610f6a565b9050919050565b6000610f7582610f06565b9050919050565b6000610f8782610f26565b91507fffffffffffffffffffffffffffffffffffffffffffffffffffffffffffffffff821415610fba57610fb9610fc5565b5b600182019050919050565b7f4e487b7100000000000000000000000000000000000000000000000000000000600052601160045260246000fd5b7f4e487b7100000000000000000000000000000000000000000000000000000000600052601260045260246000fd5b7f4e487b7100000000000000000000000000000000000000000000000000000000600052603260045260246000fd5b7f4e487b7100000000000000000000000000000000000000000000000000000000600052604160045260246000fd5b600080fd5b7f4469646e27742073656e6420656e6f7567680000000000000000000000000000600082015250565b7f63616c6c204661696c6564000000000000000000000000000000000000000000600082015250565b50565b6110e481610eea565b81146110ef57600080fd5b50565b6110fb81610efc565b811461110657600080fd5b50565b61111281610f26565b811461111d57600080fd5b50565b61112981610f30565b811461113457600080fd5b5056fea2646970667358221220b872c5506d5c2767a270ff1011c3039b18ea23ef7f60d22b7c7849a104490e2764736f6c63430008070033",
  "devdoc": {
    "author": "Olaoye Salem",
    "details": "This implements price feeds as our library",
    "kind": "dev",
    "methods": {},
    "title": "A contract for crowd funding",
    "version": 1
  },
  "userdoc": {
    "kind": "user",
    "methods": {},
    "notice": "This contract is to demo a sample funding contract",
    "version": 1
  },
  "storageLayout": {
    "storage": [
      {
        "astId": 65,
        "contract": "contracts/FundMe.sol:FundMe",
        "label": "s_priceFeed",
        "offset": 0,
        "slot": "0",
        "type": "t_contract(AggregatorV3Interface)45"
      },
      {
        "astId": 68,
        "contract": "contracts/FundMe.sol:FundMe",
        "label": "s_funders",
        "offset": 0,
        "slot": "1",
        "type": "t_array(t_address)dyn_storage"
      },
      {
        "astId": 72,
        "contract": "contracts/FundMe.sol:FundMe",
        "label": "s_addressToAmountFunded",
        "offset": 0,
        "slot": "2",
        "type": "t_mapping(t_address,t_uint256)"
      }
    ],
    "types": {
      "t_address": {
        "encoding": "inplace",
        "label": "address",
        "numberOfBytes": "20"
      },
      "t_array(t_address)dyn_storage": {
        "base": "t_address",
        "encoding": "dynamic_array",
        "label": "address[]",
        "numberOfBytes": "32"
      },
      "t_contract(AggregatorV3Interface)45": {
        "encoding": "inplace",
        "label": "contract AggregatorV3Interface",
        "numberOfBytes": "20"
      },
      "t_mapping(t_address,t_uint256)": {
        "encoding": "mapping",
        "key": "t_address",
        "label": "mapping(address => uint256)",
        "numberOfBytes": "32",
        "value": "t_uint256"
      },
      "t_uint256": {
        "encoding": "inplace",
        "label": "uint256",
        "numberOfBytes": "32"
      }
    }
  }
}